{
  "contractName": "Test",
  "abi": [
    {
      "inputs": [],
      "stateMutability": "nonpayable",
      "type": "constructor"
    },
    {
      "anonymous": false,
      "inputs": [
        {
          "indexed": false,
          "internalType": "string",
          "name": "fileURL",
          "type": "string"
        },
        {
          "indexed": false,
          "internalType": "string",
          "name": "fileName",
          "type": "string"
        },
        {
          "indexed": false,
          "internalType": "address",
          "name": "fileOwner",
          "type": "address"
        },
        {
          "indexed": false,
          "internalType": "string",
          "name": "ownerName",
          "type": "string"
        }
      ],
      "name": "FileUploaded",
      "type": "event"
    },
    {
      "inputs": [],
      "name": "count",
      "outputs": [
        {
          "internalType": "uint256",
          "name": "",
          "type": "uint256"
        }
      ],
      "stateMutability": "view",
      "type": "function",
      "constant": true
    },
    {
      "inputs": [],
      "name": "owner",
      "outputs": [
        {
          "internalType": "address",
          "name": "",
          "type": "address"
        }
      ],
      "stateMutability": "view",
      "type": "function",
      "constant": true
    },
    {
      "inputs": [
        {
          "internalType": "string",
          "name": "_fileURL",
          "type": "string"
        },
        {
          "internalType": "string",
          "name": "_fileName",
          "type": "string"
        },
        {
          "internalType": "address",
          "name": "_fileOwner",
          "type": "address"
        },
        {
          "internalType": "string",
          "name": "_ownerName",
          "type": "string"
        }
      ],
      "name": "addFile",
      "outputs": [],
      "stateMutability": "payable",
      "type": "function",
      "payable": true
    },
    {
      "inputs": [
        {
          "internalType": "uint256",
          "name": "x",
          "type": "uint256"
        }
      ],
      "name": "getData",
      "outputs": [
        {
          "components": [
            {
              "internalType": "string",
              "name": "fileURL",
              "type": "string"
            },
            {
              "internalType": "string",
              "name": "fileName",
              "type": "string"
            },
            {
              "internalType": "address",
              "name": "fileOwner",
              "type": "address"
            },
            {
              "internalType": "string",
              "name": "ownerName",
              "type": "string"
            }
          ],
          "internalType": "struct FileData",
          "name": "",
          "type": "tuple"
        }
      ],
      "stateMutability": "view",
      "type": "function",
      "constant": true
    },
    {
      "inputs": [],
      "name": "getCount",
      "outputs": [
        {
          "internalType": "uint256",
          "name": "",
          "type": "uint256"
        }
      ],
      "stateMutability": "view",
      "type": "function",
      "constant": true
    }
  ],
  "bytecode": "0x608060405234801561001057600080fd5b506000600181905550336000806101000a81548173ffffffffffffffffffffffffffffffffffffffff021916908373ffffffffffffffffffffffffffffffffffffffff160217905550610dd4806100686000396000f3fe60806040526004361061004a5760003560e01c80630178fe3f1461004f57806306661abd1461008c5780638da5cb5b146100b7578063a87d942c146100e2578063f308701c1461010d575b600080fd5b34801561005b57600080fd5b5061007660048036038101906100719190610575565b610129565b60405161008391906106e4565b60405180910390f35b34801561009857600080fd5b506100a1610371565b6040516100ae9190610715565b60405180910390f35b3480156100c357600080fd5b506100cc610377565b6040516100d9919061073f565b60405180910390f35b3480156100ee57600080fd5b506100f761039b565b6040516101049190610715565b60405180910390f35b610127600480360381019061012291906108bb565b6103a5565b005b6101316104ed565b6002828154811061014557610144610976565b5b906000526020600020906004020160405180608001604052908160008201805461016e906109d4565b80601f016020809104026020016040519081016040528092919081815260200182805461019a906109d4565b80156101e75780601f106101bc576101008083540402835291602001916101e7565b820191906000526020600020905b8154815290600101906020018083116101ca57829003601f168201915b50505050508152602001600182018054610200906109d4565b80601f016020809104026020016040519081016040528092919081815260200182805461022c906109d4565b80156102795780601f1061024e57610100808354040283529160200191610279565b820191906000526020600020905b81548152906001019060200180831161025c57829003601f168201915b505050505081526020016002820160009054906101000a900473ffffffffffffffffffffffffffffffffffffffff1673ffffffffffffffffffffffffffffffffffffffff1673ffffffffffffffffffffffffffffffffffffffff1681526020016003820180546102e8906109d4565b80601f0160208091040260200160405190810160405280929190818152602001828054610314906109d4565b80156103615780601f1061033657610100808354040283529160200191610361565b820191906000526020600020905b81548152906001019060200180831161034457829003601f168201915b5050505050815250509050919050565b60015481565b60008054906101000a900473ffffffffffffffffffffffffffffffffffffffff1681565b6000600154905090565b600260405180608001604052808681526020018581526020018473ffffffffffffffffffffffffffffffffffffffff168152602001838152509080600181540180825580915050600190039060005260206000209060040201600090919091909150600082015181600001908161041c9190610bb1565b5060208201518160010190816104329190610bb1565b5060408201518160020160006101000a81548173ffffffffffffffffffffffffffffffffffffffff021916908373ffffffffffffffffffffffffffffffffffffffff160217905550606082015181600301908161048f9190610bb1565b5050507fcd0f7c1a7e7c03bf65901c6227cb6ee66535c06eb8a4ff5479759a875c966dcd848484846040516104c79493929190610ccd565b60405180910390a1600160008154809291906104e290610d56565b919050555050505050565b60405180608001604052806060815260200160608152602001600073ffffffffffffffffffffffffffffffffffffffff168152602001606081525090565b6000604051905090565b600080fd5b600080fd5b6000819050919050565b6105528161053f565b811461055d57600080fd5b50565b60008135905061056f81610549565b92915050565b60006020828403121561058b5761058a610535565b5b600061059984828501610560565b91505092915050565b600081519050919050565b600082825260208201905092915050565b60005b838110156105dc5780820151818401526020810190506105c1565b60008484015250505050565b6000601f19601f8301169050919050565b6000610604826105a2565b61060e81856105ad565b935061061e8185602086016105be565b610627816105e8565b840191505092915050565b600073ffffffffffffffffffffffffffffffffffffffff82169050919050565b600061065d82610632565b9050919050565b61066d81610652565b82525050565b6000608083016000830151848203600086015261069082826105f9565b915050602083015184820360208601526106aa82826105f9565b91505060408301516106bf6040860182610664565b50606083015184820360608601526106d782826105f9565b9150508091505092915050565b600060208201905081810360008301526106fe8184610673565b905092915050565b61070f8161053f565b82525050565b600060208201905061072a6000830184610706565b92915050565b61073981610652565b82525050565b60006020820190506107546000830184610730565b92915050565b600080fd5b600080fd5b7f4e487b7100000000000000000000000000000000000000000000000000000000600052604160045260246000fd5b61079c826105e8565b810181811067ffffffffffffffff821117156107bb576107ba610764565b5b80604052505050565b60006107ce61052b565b90506107da8282610793565b919050565b600067ffffffffffffffff8211156107fa576107f9610764565b5b610803826105e8565b9050602081019050919050565b82818337600083830152505050565b600061083261082d846107df565b6107c4565b90508281526020810184848401111561084e5761084d61075f565b5b610859848285610810565b509392505050565b600082601f8301126108765761087561075a565b5b813561088684826020860161081f565b91505092915050565b61089881610652565b81146108a357600080fd5b50565b6000813590506108b58161088f565b92915050565b600080600080608085870312156108d5576108d4610535565b5b600085013567ffffffffffffffff8111156108f3576108f261053a565b5b6108ff87828801610861565b945050602085013567ffffffffffffffff8111156109205761091f61053a565b5b61092c87828801610861565b935050604061093d878288016108a6565b925050606085013567ffffffffffffffff81111561095e5761095d61053a565b5b61096a87828801610861565b91505092959194509250565b7f4e487b7100000000000000000000000000000000000000000000000000000000600052603260045260246000fd5b7f4e487b7100000000000000000000000000000000000000000000000000000000600052602260045260246000fd5b600060028204905060018216806109ec57607f821691505b6020821081036109ff576109fe6109a5565b5b50919050565b60008190508160005260206000209050919050565b60006020601f8301049050919050565b600082821b905092915050565b600060088302610a677fffffffffffffffffffffffffffffffffffffffffffffffffffffffffffffffff82610a2a565b610a718683610a2a565b95508019841693508086168417925050509392505050565b6000819050919050565b6000610aae610aa9610aa48461053f565b610a89565b61053f565b9050919050565b6000819050919050565b610ac883610a93565b610adc610ad482610ab5565b848454610a37565b825550505050565b600090565b610af1610ae4565b610afc818484610abf565b505050565b5b81811015610b2057610b15600082610ae9565b600181019050610b02565b5050565b601f821115610b6557610b3681610a05565b610b3f84610a1a565b81016020851015610b4e578190505b610b62610b5a85610a1a565b830182610b01565b50505b505050565b600082821c905092915050565b6000610b8860001984600802610b6a565b1980831691505092915050565b6000610ba18383610b77565b9150826002028217905092915050565b610bba826105a2565b67ffffffffffffffff811115610bd357610bd2610764565b5b610bdd82546109d4565b610be8828285610b24565b600060209050601f831160018114610c1b5760008415610c09578287015190505b610c138582610b95565b865550610c7b565b601f198416610c2986610a05565b60005b82811015610c5157848901518255600182019150602085019450602081019050610c2c565b86831015610c6e5784890151610c6a601f891682610b77565b8355505b6001600288020188555050505b505050505050565b600082825260208201905092915050565b6000610c9f826105a2565b610ca98185610c83565b9350610cb98185602086016105be565b610cc2816105e8565b840191505092915050565b60006080820190508181036000830152610ce78187610c94565b90508181036020830152610cfb8186610c94565b9050610d0a6040830185610730565b8181036060830152610d1c8184610c94565b905095945050505050565b7f4e487b7100000000000000000000000000000000000000000000000000000000600052601160045260246000fd5b6000610d618261053f565b91507fffffffffffffffffffffffffffffffffffffffffffffffffffffffffffffffff8203610d9357610d92610d27565b5b60018201905091905056fea2646970667358221220f79984c2ee31b44e53364249e2eb26e5aa959854d057f357fb7c16bca814aff564736f6c63430008100033",
  "immutableReferences": {},
  "source": "// SPDX-License-Identifier: MIT\r\npragma solidity >=0.4.22 <0.9.0;\r\n\r\nstruct FileData {\r\n    string fileURL;\r\n    string fileName;\r\n    address fileOwner;\r\n    string ownerName;\r\n}\r\n    \r\ncontract Test {\r\n    address public owner;\r\n    uint public count;\r\n    \r\n    FileData[] FileArray;\r\n\r\n    event FileUploaded(\r\n        string fileURL,\r\n        string fileName,\r\n        address fileOwner,\r\n        string ownerName\r\n    );\r\n\r\n    constructor(){\r\n        count=0;\r\n        owner = msg.sender;\r\n    }\r\n\r\n    function addFile(string memory _fileURL, string memory _fileName, address _fileOwner, string memory _ownerName) public payable{\r\n        FileArray.push(FileData(_fileURL, _fileName, _fileOwner, _ownerName));\r\n        emit FileUploaded(_fileURL, _fileName, _fileOwner, _ownerName);\r\n        count++;\r\n    }\r\n\r\n    function getData(uint x) public view returns(FileData memory){\r\n        return FileArray[x];\r\n    }\r\n\r\n    function getCount() public view returns(uint){\r\n        return count;\r\n    }\r\n}",
  "sourcePath": "C:\\Users\\alber\\OneDrive\\Desktop\\FileUpload\\FileUpload\\contracts\\Test.sol",
  "compiler": {
    "name": "solc",
    "version": "0.8.16+commit.07a7930e.Emscripten.clang"
  },
  "schemaVersion": "3.4.9",
  "updatedAt": "2022-08-22T13:46:40.236Z",
  "networkType": "ethereum",
  "devdoc": {
    "kind": "dev",
    "methods": {},
    "version": 1
  },
  "userdoc": {
    "kind": "user",
    "methods": {},
    "version": 1
  }
}